:020000040000FA
:06000000A3EF00F0120066
:02002A000000D4
:04002C002A0EF66E34
:10003000000EF76E000EF86E00010900F550856F96
:100040000900F550866F03E1856701D03DD00900B6
:10005000F550806F0900F550816F0900F550826FEF
:1000600009000900F550E96E0900F550EA6E090033
:1000700009000900F550836F0900F550846F0900ED
:100080000900F6CF87F0F7CF88F0F8CF89F080C06D
:10009000F6FF81C0F7FF82C0F8FF0001835302E141
:1000A000845307E00900F550EE6E8307F8E28407F9
:1000B000F9D787C0F6FF88C0F7FF89C0F8FF0001B5
:0A00C0008507000E865BBFD7120013
:0600CA00956A010E936E21
:1000D0000F0EC16E81B002D0836A1CD0010E836EF8
:1000E000640EE66E8CEC00F0E552020E836E640E38
:1000F000E66E8CEC00F0E552040E836E640EE66E44
:100100008CEC00F0E552080E836E640EE66E8CEC0B
:0801100000F0E552DFD71200F8
:08011800FF0EE350036EEF0E31
:1001200001D0F30EE76EE72E93EF00F00C0E026E97
:10013000E76AE72E99EF00F0022E98EF00F0032E09
:0601400091EF00F0120037
:0A01460015EE00F025EE00F0F86A57
:10015000019C16EC00F0B1EC00F065EC00F0FBD770
:0201600012008B
:02016200120089
:020000040030CA
:0100010002FC
:010003001EDE
:010005008377
:00000001FF
