:020000040000FA
:06000000D7EF00F0120032
:06002A000100E8010000E6
:08003000800000001400000034
:08003800D9CFE6FFE1CFD9FFAB
:10004000828C0A0E106E10C00CF0FE0EDBCF07F093
:10005000E5EC00F00750EA6A800FE96E000EEA2234
:10006000EF50836E0A0EE66EC0EC00F0E552829C03
:10007000828E0A0E106E10C00CF0FE0EDBCF07F061
:10008000E5EC00F00350EA6A800FE96E000EEA2208
:10009000EF50836E0A0EE66EC0EC00F0E552829ED1
:1000A000E552E7CFD9FF1200956A010E946E0F0E4C
:1000B000C16ECD8ECD82CF6ACE6ACD80CF50106E0C
:1000C000116A10C011F0106ACE50000110249E6F0A
:1000D000000E11209F6F9EC0E6FFAEDFE552EED707
:0200E00012000C
:0E00E2002A0EF66E000EF76E000EF86E00018C
:1000F0000900F550996F0900F5509A6F03E199676F
:1001000001D03DD00900F550946F0900F550956F6E
:100110000900F550966F09000900F550E96E0900D5
:10012000F550EA6E090009000900F550976F0900C3
:10013000F550986F09000900F6CF9BF0F7CF9CF0BF
:10014000F8CF9DF094C0F6FF95C0F7FF96C0F8FF7A
:100150000001975302E1985307E00900F550EE6E55
:100160009707F8E29807F9D79BC0F6FF9CC0F7FF06
:100170009DC0F8FF00019907000E9A5BBFD71200DF
:10018000FF0EE350136EEF0E01D0F30EE76EE72E75
:10019000C7EF00F00C0E126EE76AE72ECDEF00F00D
:0E01A000122ECCEF00F0132EC5EF00F012006F
:0201AE0015EE4C
:1001B00000F025EE00F0F86A0F9C71EC00F0F3EC13
:0A01C00000F054EC00F0FBD7120031
:0601CA00036A080EE76E57
:1001D000D890073603360C50035C02E3036E072AFF
:0601E000E72EF7D7120024
:0201E600120005
:0801E800C0F9A4B0999282F85D
:0C01F00080903F065B4F666D7D077F6FBF
:020000040030CA
:0100010002FC
:010003001EDE
:010005008377
:00000001FF
