:020000040000FA
:06000000EAEF00F012001F
:06002A000100F2010000DC
:080030008A000000010000003D
:080038002A0EF66E000EF76EB1
:10004000000EF86E00010900F550856F0900F550AB
:10005000866F03E1856701D03DD00900F550806FC0
:100060000900F550816F0900F550826F0900090001
:10007000F550E96E0900F550EA6E09000900090023
:10008000F550836F0900F550846F09000900F6CF21
:1000900087F0F7CF88F0F8CF89F080C0F6FF81C0F5
:1000A000F7FF82C0F8FF0001835302E1845307E0A9
:1000B0000900F550EE6E8307F8E28407F9D787C090
:1000C000F6FF88C0F7FF89C0F8FF00018507000E22
:0600D000865BBFD71200A1
:0A00D600010E936E0F0EC16ECA9268
:1000E000CA80190EE66ED4EC00F0E5525A0EE66EA8
:1000F000E66AA5EC00F0E552E552030E00018A5DC8
:100100001BE281B004D081A0FED700018A2B8A05B2
:1001100008E11E0EE66EE66AA5EC00F0E552E55237
:100120000AD0020E8A5D07E1460EE66EE66AA5EC8D
:1001300000F0E552E552E1D75A0EE66EE66AA5EC0C
:0A01400000F0E552E552FFD712006F
:06014A00D9CFE6FFDACF79
:10015000E6FFE1CFD9FFE2CFDAFFE652E652FC0E2E
:10016000DBCF02F0FD0EDBCF03F0060ED890023697
:100170000336E804FBE102C0DEFF03C0DDFF010E31
:10018000DB50BB6EDF50E840E8403F0B300B026EA7
:10019000CF0EBA140210BA6EE552E552E552E5CF21
:0801A000DAFFE7CFD9FF1200DE
:0801A800D9CFE6FFDACFE6FF34
:1001B000E1CFD9FFE2CFDAFF0C0EBA6ECA94949267
:1001C000FD0EDB50CB6ECA84E552E5CFDAFFE7CFF8
:0401D000D9FF120041
:0C01D40015EE00F025EE00F0F86A019C2A
:1001E0001CEC00F0F8EC00F06BEC00F0FBD7120018
:0201F0001200FB
:0101F200000C
:020000040030CA
:0100010002FC
:010003001EDE
:010005008377
:00000001FF
