:020000040000FA
:0600000084EF00F0120085
:06002A00010026010000A8
:080030008A000000020000003C
:080038002A0EF66E000EF76EB1
:10004000000EF86E00010900F550856F0900F550AB
:10005000866F03E1856701D03DD00900F550806FC0
:100060000900F550816F0900F550826F0900090001
:10007000F550E96E0900F550EA6E09000900090023
:10008000F550836F0900F550846F09000900F6CF21
:1000900087F0F7CF88F0F8CF89F080C0F6FF81C0F5
:1000A000F7FF82C0F8FF0001835302E1845307E0A9
:1000B0000900F550EE6E8307F8E28407F9D787C090
:1000C000F6FF88C0F7FF89C0F8FF00018507000E22
:0600D000865BBFD71200A1
:0A00D600010E936E956A0F0EC16EC5
:1000E000050E00018A5D0CE281B009D081A0FED727
:1000F0008BC083FF00018B51E8248B6F8A2BF0D7D4
:080100000F0E836EFFD7120001
:0801080015EE00F025EE00F0F9
:10011000F86A019C1CEC00F092EC00F06BEC00F033
:04012000FBD71200F7
:020124001200C7
:020126000001D6
:020000040030CA
:0100010002FC
:010003001EDE
:010005008377
:00000001FF
