:020000040000FA
:0600000088EF03F012007E
:02002A000000D4
:04002C00019E08D059
:10003000019E09AE05D0086C091EE86A0922018EEE
:1000400009C003F008C002F0136A126A8E0E046E33
:10005000056A94EF01F0016AD0EC01F0E8EC01F0E0
:1000600001B678EF01F001A205D001BA78EF01F0F6
:100070007FEF01F001BA8BEF01F001A005D001B8CC
:1000800078EF01F08BEF01F001B87FEF01F0056A26
:100090007F0E0A24046EE86A05220F50045EE86AA7
:1000A000055A1A0E106E0A6A126A136A026A036A05
:1000B0000C50075E0D50085A0E50095A000E0A5A8D
:1000C00009E70C5007260D5008220E500922000E99
:1000D0000A2201D0128AD8900736083609360A3625
:1000E000D8901236133602360336102EE1D7095057
:1000F00008100710D8A4128A94EF01F0016AD0EC1E
:1001000001F0E8EC01F001B678EF01F001A205D0B2
:1001100001B878EF01F07FEF01F001AA05D001B03E
:1001200078EF01F07FEF01F001B002D001A802D01A
:100130008BEF01F0056A0F500A24046EE86A05226D
:100140007E0E045EE86A055A126A136A026A036A3E
:100150000E500902F4CF03F0F3CF02F00D50090264
:10016000F3501326F4500222000E03220E50080210
:10017000F3501326F4500222000E03220C50090201
:10018000F3501226F4501322000E022203220D50C7
:100190000802F3501226F4501322000E022203220A
:1001A0000E500702F3501226F4501322000E0222C2
:1001B00003220C500802F4501226000E13220222D1
:1001C00003220D500702F4501226000E13220222C1
:1001D000032294EF01F0006A0EAEF4EF00F00D6C14
:1001E0000E1EE86A0E22001E09AEFCEF00F0086C3D
:1001F000091EE86A0922001E72EC03F009BE0CEF2A
:1002000001F000AE000C086C091EE86A0922046CBB
:10021000051EE86A0522000C00BE03EF01F001880C
:10022000FF0C23EC01F001B6000C01B0000C01B48E
:10023000000C010C23EC01F001B6000C01B0000C25
:1002400001A4000C010C016AD0EC01F0E8EC01F013
:1002500001B6120001AE08D001A004D001A802D05E
:1002600001801200019012000F500A5C0BE10E5049
:10027000095C08E10D50085C05E10C50075C02E1E7
:1002800001801200D8A002D0018E10D00A500FC0F9
:100290000AF00F6E09500EC009F00E6E08500DC026
:1002A00008F00D6E07500CC007F00C6E0F500A5C82
:1002B00010E0FF0F09E0019001B403D001AE01840A
:1002C000120001AE019412000F2AD8900E320D32A6
:1002D0000C320C50075E0D50085A0E50095A09BED8
:1002E000EAD7D8900736083609360A2EF8D7C8D785
:1002F0007F0E0A6EFF0E096E086E076E12007F0EEB
:1003000001BEFF0E0A6E02D07F0E0A6E800E096ECD
:10031000086A076AF3D701AE04D0800E0A6E096A34
:10032000F7D70A6A096AF4D70350021013101210A3
:10033000F8E005BEF0D703BE0CD004500510EBE08A
:10034000D89012361336023603360406D8A00506B6
:10035000F2D70550D4E10428D2E012AE11D07F0EBE
:10036000121402E113A00CD0132AE86A022203221D
:1003700007E3D880033202321332042A0428BFE094
:100380000450C9E013C007F002C008F00334096E3E
:1003900004300A6E09320A9E01BE0A8E7EEF01F019
:1003A00009360A3602E30184017E06E101800A6A09
:1003B000096A086A076A12000A2803E0D88009322D
:1003C0001200D890093202E1018212000186120067
:1003D0000E360F3602E3018C017E06E101880F6ABA
:1003E0000E6A0D6A0C6A12000F2803E0D8800E32E4
:0C03F0001200D8900E32EAE1018A1200DF
:0403FC00D9CFE6FF70
:10040000E1CFD9FF060EE126200E926E956A946A1E
:10041000966A0A0EC16E0A0EE66E240EE66EAB0EEA
:10042000E66E1FEC03F0E552E552E5529EEC03F058
:1004300096EC03F0000901E0FBD753EC03F0F3CF97
:10044000DEFFF4CFDDFF9BEC03F0DECF14F0DDCF59
:1004500015F00D6A010E0E6E14C008F015C009F0FB
:10046000EBEC00F004C014F005C015F01450836EDE
:10047000010EDB50826E186A196AA00E1A6E400EC9
:100480001B6E000EDFCF08F0010EDBCF09F018EC79
:1004900000F007C01CF008C01DF009C01EF00AC023
:1004A0001FF01CC00CF01DC00DF01EC00EF01FC0D0
:1004B0000FF018C007F019C008F01AC009F01BC0EF
:1004C0000AF07EEC00F007C014F008C015F009C077
:1004D00016F00AC017F00C6AC00E0D6E7F0E0E6E7D
:1004E000440E0F6E14C007F015C008F016C009F0D6
:1004F00017C00AF02BEC00F0020E07C0DBFF030E62
:1005000008C0DBFF040E09C0DBFF050E0AC0DBFFDD
:10051000020EDBCF14F0030EDBCF15F0040EDBCFA1
:1005200016F0050EDBCF17F00C6A0D6A0E6A400E4E
:100530000F6E14C007F015C008F016C009F017C000
:100540000AF01AEC01F0010A1FE0020EDBCF18F0EE
:10055000030EDBCF19F0040EDBCF1AF0050EDBCF54
:100560001BF00C6A0D6A400E0E6E0F6E18C007F07D
:1005700019C008F01AC009F01BC00AF011EC01F014
:10058000010A02E0848201D0849245D7060EE15C24
:1005900002E2E16AE552E16EE552E7CFD9FF1200CF
:1005A0002A0EF66E000EF76E000EF86E00010900BE
:1005B000F550856F0900F550866F03E1856701D01E
:1005C0003DD00900F550806F0900F550816F09009A
:1005D000F550826F09000900F550E96E0900F550E9
:1005E000EA6E090009000900F550836F0900F55013
:1005F000846F09000900F6CF87F0F7CF88F0F8CFB5
:1006000089F080C0F6FF81C0F7FF82C0F8FF0001CB
:10061000835302E1845307E00900F550EE6E83072F
:10062000F8E28407F9D787C0F6FF88C0F7FF89C0D2
:0E063000F8FF00018507000E865BBFD71200A1
:02063E00D9CF12
:10064000E6FFDACFE6FFE1CFD9FFE2CFDAFFC26AF9
:10065000C16AC06AFC0EDB407F0B3C0BC26EFB0E16
:10066000DB50C16EFC0EDB38F00B300BC112FD0EFF
:10067000DB50800BC06EFD0EDB380F0B070BC0127A
:10068000FD0EDB50040DF350380BC012FC0EDBAE38
:1006900003D09E9C9D8CF28CC280E552E5CFDAFFA0
:0606A000E7CFD9FF1200B4
:0A06A600D9CFE6FFDACFE6FFE1CF7F
:1006B000D9FFE2CFDAFFE652E652C350DF6E010EF9
:1006C000C4CFDBFFDECF14F0DDCF15F014C0F3FF95
:1006D00015C0F4FFE552E552E552E5CFDAFFE7CF6A
:0406E000D9FF12002C
:0C06E400056A046A100EE76ED890083614
:1006F0000936043605360D50045C0E50055805E3E6
:100700000D50045E0E50055A082AE72EF0D712004D
:1007100015EE00F025EE00F0F86A019CD0EC02F036
:0C072000A0EC03F0FEEC01F0FBD712008F
:04072C00C250020BAA
:0607300001E0010E1200C1
:06073600C2909D9C120020
:04073C00C282120063
:020740001200A5
:020000040030CA
:0100010002FC
:010003001EDE
:010005008377
:00000001FF
