:020000040000FA
:06000000CDEF00F012003C
:06002A000100D4010000FA
:08003000800000001400000034
:080038002A0EF66E000EF76EB1
:10004000000EF86E00010900F550996F0900F55097
:100050009A6F03E1996701D03DD00900F550946F84
:100060000900F550956F0900F550966F09000900D9
:10007000F550E96E0900F550EA6E09000900090023
:10008000F550976F0900F550986F09000900F6CFF9
:100090009BF0F7CF9CF0F8CF9DF094C0F6FF95C091
:1000A000F7FF96C0F8FF0001975302E1985307E06D
:1000B0000900F550EE6E9707F8E29807F9D79BC054
:1000C000F6FF9CC0F7FF9DC0F8FF00019907000EE6
:0600D0009A5BBFD712008D
:0A00D600D9CFE6FFE1CFD9FF828CFD
:1000E0000A0E126E12C00CF0FE0EDBCF07F0DBEC36
:1000F00000F00750EA6A800FE96E000EEA22EF5026
:10010000816E0A0EE66EB6EC00F0E552829C828E9D
:100110000A0E126E12C00CF0FE0EDBCF07F0DBEC05
:1001200000F00350EA6A800FE96E000EEA22EF50F9
:10013000816E0A0EE66EB6EC00F0E552829EE55244
:10014000E7CFD9FF1200956A936A100E926E946AF7
:100150000F0EC16ED58CD58AD66AD58ED6CF9EF0BD
:0C0160009EC0E6FFB8DFE552F9D71200A0
:04016C00FF0EE3504F
:10017000116EEF0E01D0F30EE76EE72EBDEF00F02B
:100180000C0E106EE76AE72EC3EF00F0102EC2EFE0
:0A01900000F0112EBBEF00F012008A
:06019A0015EE00F025EE59
:1001A00000F0F86A0F9C1CEC00F0E9EC00F0A3EC06
:0601B00000F0FBD7120075
:0A01B600036A080EE76ED8900736C2
:1001C00003360C50035C02E3036E072AE72EF7D7D1
:0201D00012001B
:0201D200120019
:0C01D400C0F9A4B0999282F880903F0618
:0801E0005B4F666D7D077F6F28
:020000040030CA
:0100010002FC
:010003001EDE
:010005008377
:00000001FF
