:020000040000FA
:06000000B6EF00F0120053
:060008006BEF00F0120096
:06002A0001008A01000044
:080030008A000000010000003D
:080038002A0EF66E000EF76EB1
:10004000000EF86E00010900F550856F0900F550AB
:10005000866F03E1856701D03DD00900F550806FC0
:100060000900F550816F0900F550826F0900090001
:10007000F550E96E0900F550EA6E09000900090023
:10008000F550836F0900F550846F09000900F6CF21
:1000900087F0F7CF88F0F8CF89F080C0F6FF81C0F5
:1000A000F7FF82C0F8FF0001835302E1845307E0A9
:1000B0000900F550EE6E8307F8E28407F9D787C090
:1000C000F6FF88C0F7FF89C0F8FF00018507000E22
:0600D000865BBFD71200A1
:0A00D600DACFE4FFE2CFDAFFE652D2
:1000E000D9CFE6FFE1CFD9FFE652F2A20AD0000154
:1000F0008A2B080E8A5D01E18A6B8A39F00B826EC9
:10010000F292E552E552E7CFD9FFE552E5CFDAFFAB
:100110001100946A010E936E0F0EC16EF28EF28C76
:10012000F288828E320EE66E9FEC00F0E552829EDF
:0E013000320EE66E9FEC00F0E552F3D712009F
:02013E00FF0EB2
:10014000E350036EEF0E01D0F30EE76EE72EA6EF3D
:1001500000F00C0E026EE76AE72EACEF00F0022E04
:0C016000ABEF00F0032EA4EF00F0120043
:04016C0015EE00F09C
:1001700025EE00F0F86A019C1CEC00F0C4EC00F0E5
:0801800089EC00F0FBD712002E
:02018800120063
:01018A000074
:020000040030CA
:0100010002FC
:010003001EDE
:010005008377
:00000001FF
