:020000040000FA
:06000000FAEF00F012000F
:0600180016EF00F01200DB
:02002A000000D4
:04002C00DACFE4FF44
:10003000E2CFDAFFE9CFE4FFEACFE4FFF6CFE4FF57
:10004000F7CFE4FFF5CFE4FFF3CFE4FFF4CFE4FF15
:10005000FACFE4FF00EE00F0020EE80403E3EECF77
:10006000E4FFFBD700EE04F0000EE80403E3EECF5C
:10007000E4FFFBD7E652D9CFE6FFE1CFD9FFE65246
:10008000F0A014D08294DF6A0A0EDF5C0EE2828850
:10009000640EE66EE3EC00F0E5528298640EE66EC4
:1000A000E3EC00F0E552DF2AEFD7F090E552E5529D
:1000B000E7CFD9FFE55200EE03F0000EE80403E3BA
:1000C000E5CFEDFFFBD700EE01F0020EE80403E3FD
:1000D000E5CFEDFFFBD7E5CFFAFFE5CFF4FFE5CFA6
:1000E000F3FFE5CFF5FFE5CFF7FFE5CFF6FFE5CF6F
:1000F000EAFFE5CFE9FFE5CFDAFF1100946A020ECF
:10010000936E0F0EC16EF28EF28CF0868284640EB6
:10011000E66EE3EC00F0E5528294640EE66EE3ECEA
:0801200000F0E552F3D71200D4
:080128002A0EF66E000EF76EC0
:10013000000EF86E00010900F550856F0900F550BA
:10014000866F03E1856701D03DD00900F550806FCF
:100150000900F550816F0900F550826F0900090010
:10016000F550E96E0900F550EA6E09000900090032
:10017000F550836F0900F550846F09000900F6CF30
:1001800087F0F7CF88F0F8CF89F080C0F6FF81C004
:10019000F7FF82C0F8FF0001835302E1845307E0B8
:1001A0000900F550EE6E8307F8E28407F9D787C09F
:1001B000F6FF88C0F7FF89C0F8FF00018507000E31
:0601C000865BBFD71200B0
:0A01C600FF0EE350036EEF0E01D0B0
:1001D000F30EE76EE72EEAEF00F00C0E026EE76A10
:1001E000E72EF0EF00F0022EEFEF00F0032EE8EF25
:0401F00000F0120009
:0C01F40015EE00F025EE00F0F86A019C0A
:1002000094EC00F008EC01F07EEC00F0FBD712005B
:020210001200DA
:020000040030CA
:0100010002FC
:010003001EDE
:010005008377
:00000001FF
